S01800004B65795061645F436F6E7665727465722E73726563B7
S11300000C9489000C949E000C949E000C949E0009
S11300100C949E000C949E000C949E000C949E00E4
S11300200C949E000C949E000C949E000C949E00D4
S11300300C949E000C949E000C949E000C949E00C4
S11300400C949E000C949E000C949E000C949E00B4
S11300500C949E00B202B402B602AC02B202B40224
S1130060B602AC02B202B402B602AC02B202B402EC
S1130070B602AC02B202B402B602AC02B202B402DC
S1130080B602AC02B202B402B602AC02B202B402CC
S1130090B602610663066506670669066B066D06A9
S11300A06F06710673067506770679067B067D066C
S11300B07F06810683068506870689068B068D06DC
S11300C08F06910693069506970699069B069D064C
S11300D09F06AB06AD06AF06B106B306B506B70676
S11300E0B906BB06BD06BF06C106C306C506C706DC
S11300F0C906CB06CD06CF06D106D306D506D7064C
S1130100D906DB06DD06DF06E106E306E506E706BB
S1130110E90611241FBECFE5D8E0DEBFCDBF11E054
S1130120A0E6B0E0E4E2FFE002C005900D92A0304A
S1130130B107D9F70E9468030C9490070C9400004F
S1130140DF92EF92FF920F931F93CF93DF9361E0BF
S113015088E00E94510661E089E00E94510661E056
S11301608AE00E94510661E08BE00E94510690E60D
S1130170E92E90E0F92EC8E0DEE460E08C2F0E94C6
S1130180510600E010E080E1D82ED00E8D2D0E94A3
S1130190FB06811109C0F701E00FF11FD0818D2DFD
S11301A00E94FB068823D9F30F5F1F4F043011050B
S11301B051F761E08C2F0E945106CF5F84E0E80E76
S11301C0F11CCC30D1F68D2FDF91CF911F910F917F
S11301D0FF90EF90DF900895CF93C82F60E08EE0FA
S11301E00E9451066C2F80E00E94EB0661E08FE0D4
S11301F00E9451068FEC97E00197F1F700C00000D0
S113020060E08FE00E9451068FEC97E00197F1F7D0
S113021000C00000CF910895CF93C82F61E08EE015
S11302200E9451066C2F80E00E94EB0661E08FE093
S11302300E9451068FEC97E00197F1F700C000008F
S113024060E08FE00E9451068FEC97E00197F1F790
S113025000C00000CF9108952FE788E391E021507A
S113026080409040E1F700C0000088E30E94EC0069
S11302708EE00E94EC0081E00E94EC008FEC97E09D
S11302800197F1F700C0000086E00C94EC000C9498
S11302900C010F931F93CF938C01C0E0F801EC0F76
S11302A0F11D8081882321F00E940C01CF5FF6CFDD
S11302B0CF911F910F910895EF92FF921F93CF93C7
S11302C0DF93C7E0D0E010E0E82EF12CC7010C2E3C
S11302D002C0959587950A94E2F780FF05C081E3F3
S11302E00E940C0111E007C0113021F480E30E9448
S11302F00C0101C010E0219748F7DF91CF911F91C5
S1130300FF90EF900895AC0190E0FA01E90FF11D20
S11303108081882311F09F5FF8CF2FEF290FFA0116
S11303209695822F891B281749F09081DA01A20F34
S1130330B11D3C9131939C932150F5CF08954F9278
S11303405F926F927F928F929F92BF92CF92DF9231
S1130350EF92FF920F931F93CF93DF93CDB7DEB746
S113036064970FB6F894DEBF0FBECDBF6B017C015E
S11303708E010F5F1F4F84E1F80111928A95E9F70E
S1130380C114D104E104F10421F480E30E940C01BE
S113039031C0F7FE0BC0F094E094D094C094C11C1B
S11303A0D11CE11CF11C8DE20E940C01B12C8AE0ED
S11303B0482E512C612C712C48018B0C911CC701C7
S11303C0B601A30192010E945107605DF4016083AC
S11303D069017A01B394C114D104E104F10461F711
S11303E0F801EB0DF11D1082C8010E948301C801C0
S11303F00E94490164960FB6F894DEBF0FBECDBFCC
S1130400DF91CF911F910F91FF90EF90DF90CF90EC
S1130410BF909F908F907F906F905F904F900895C2
S11304208C3081F030F48A3059F08B3091F482E4CE
S11304300AC08E3061F048F08F3059F486E403C06E
S113044081E401C083E40C940C0184E4FCCF85E4D2
S1130450FACF682F70E080E090E00C949F01811146
S113046002C080E803C0813021F480EC860F0C9434
S1130470EC000895EF92FF920F931F93CF93DF93B5
S1130480CDB7DEB7A0970FB6F894DEBF0FBECDBFD1
S1130490FE01319620E2DF011D922A95E9F7A0E0E2
S11304A0B0E08B019C010A2E04C036952795179560
S11304B007950A94D2F7402F417041931196A032C8
S11304C0B10579F78FE1E82E10E000E0F12C81E02E
S11304D08E0DFE01E80FF11D90819130B1F1B1E074
S11304E0FB1221C08D3091F038F4853079F08930D9
S11304F069F08130D1F411C0853141F018F48131B3
S113050029F013C0893111F08D3179F4812F0E94C3
S113051010020F5F043061F50DC0812F0E9410029C
S1130520033051F507C0F12C02C0FF24F3940430CA
S113053041F403C0FF24F39410E080E20E940C0114
S113054000E0EE20C9F0EA94C2CF4E2D50E0FA014B
S11305503197EF31F10510F01F5FC4CFE65DFF4F17
S11305600C9470071E5FBECF1C5FBCCF185FBACF60
S113057010E0FF24F394E7CFA0960FB6F894DEBF03
S11305800FBECDBFDF91CF911F910F91FF90EF90E0
S1130590089581E00C94EC004F925F926F927F92E9
S11305A08F929F92AF92BF92CF92DF92EF92FF927F
S11305B0CF932AE030E040E050E00E942F074B0147
S11305C05C0181E08815A8F169017A01C1E0AAE023
S11305D04A2E512C612C712CC114D104E104F10474
S11305E029F1C701B601A30192010E942F076230CD
S11305F000F521E030E040E050E0E0E0EC1731F0BD
S1130600220F331F441F551FEF5FF8CF0E941F07AF
S1130610860E971EA81EB91EC701B601A30192013A
S11306200E942F0769017A01CF5FD6CFB401C501BB
S113063004C06FEF7FEF8FEF9FEFCF91FF90EF90AC
S1130640DF90CF90BF90AF909F908F907F906F90EE
S11306505F904F900895CF92DF92EF92FF92CF93E5
S1130660DF93FC01DFEFD60FCD2FC12CD12C760107
S11306709D2F9C1BCC23E9F021E030E040E050E0CA
S113068080E0891749F064E0220F331F441F551F8F
S11306906A95D1F78F5FF5CFDF01AC0FB11DAC9137
S11306A0B0E00E947607C60ED71EE81EF91EC150A0
S11306B0DFCFCF010A961192E817F907E1F7C701D6
S11306C0B601DF91CF91FF90EF90DF90CF90089526
S11306D0CF93DF93CDB7DEB72B970FB6F894DEBF79
S11306E00FBECDBF0E943E060E942C01CE01019692
S11306F07C018AE0F70111928A95E9F760E080E0D5
S11307000E942F0280E790E00E944901FFEF29E652
S113071048E1F15020404040E1F700C000000E9451
S1130720C90286E890E00E94490160E081E00E94ED
S11307302F0283E990E00E944901812C912C5401FD
S1130740312C11E03CE0232E4EE0542E5DE0D52EFA
S11307506FE0C62E7AE0772EEBE06E2E0E94A000AA
S1130760082F8E34D9F3311097C00E94C90281EA50
S113077090E00E9449010233B1F0033331F10133B7
S1130780A9F568E080E00E942F0284E40E944701FA
S113079060E081E00E942F0286E990E00E94490116
S11307A024E4422E23C068E080E00E942F0288E403
S11307B00E94470160E081E00E942F028EEA90E0EF
S11307C00E94490198E4492E11C068E080E00E942B
S11307D02F0282E40E94470160E081E00E942F0220
S11307E086EB90E00E94490182E4482E0E94A0001A
S11307F08E34E1F38233F1F08333A9F1813309F0CC
S113080031C10E94C90260E080E00E942F02842D61
S11308100E94470160E081E00E942F0284E40E946C
S1130820470162E080E00E942F023324339484E481
S11308308B8794CF0E94C90260E080E00E942F025F
S1130840842D0E94470160E081E00E942F0288E429
S11308500E94470162E080E00E942F023324339417
S113086098E49B877BCF0E94C90260E080E00E94ED
S11308702F02842D0E94470160E081E00E942F0234
S113088082E40E94470162E080E00E942F02332448
S11308903394E2E4EB8762CF0E94470180ED800F3E
S11308A08A30E8F4F8E44F1205C0F701E10FF11DB6
S11308B080833EC0AAE0B0E0A50194010E947607BF
S11308C0202F30E0490140E3841A9108092C000CE0
S11308D0AA08BB08860E971EA81EB91EC3C00334FF
S11308E0C9F048F4013489F0023421F5F701E10F2D
S11308F0F11D60821DC00534B9F088F00634D1F4CE
S1130900F701E10FF11DC08213C0F701E10FF11DE2
S113091070820EC0F701E10FF11D208209C0F701BA
S1130920E10FF11DD08204C0F701E10FF11D5082E7
S11309301F5F98C00D3309F095C084E448120EC0BF
S11309409B85923431F462E081E00E942F02882D6D
S113095070C0EB85E83409F06EC040C0F2E44F1279
S113096046C02B852434E1F4C501B4010E94CC02B5
S11309704B015C016F3F7F4F8F4F9F4F09F043C086
S11309800E94C90280EC90E00E9449018FEF99E631
S1130990E8E181509040E040E1F700C0000033C03E
S11309A02B85283409F047C0C501B4010E94CC024C
S11309B04B015C016F3F7F4F8F4F9F4F79F40E9433
S11309C0C90280EC90E00E9449012FEF49E688E1DA
S11309D0215040408040E1F700C0000062E081E027
S11309E00E942F02C501B4010E943A0224C098E477
S11309F0491221C0EB85E43479F4612FC7010E94C8
S1130A002B034B015C0162E081E00E942F02C501CF
S1130A10B4010E949F010FC0FB85F23461F4612F81
S1130A20C7010E942B03B62E62E081E00E942F02D0
S1130A308B2D0E945C010E94A0008336E1F70E9486
S1130A40C90286E890E00E94490160E081E00E94CA
S1130A502F0283E990E00E944901812C912C5401DA
S1130A60312C7CCE3324339479CE613009F457C0D1
S1130A7020F0623009F4ABC00895883080F44AB3A2
S1130A8021E030E0B90102C0660F771F8A95E2F7D2
S1130A90CB01942F982B9ABB9BB3809551C098EFB0
S1130AA0980F983088F447B3877021E030E0B9019B
S1130AB002C0660F771F8A95E2F7CB01942F982B1B
S1130AC097BB98B3809553C090EF980F983088F4F3
S1130AD044B3877021E030E0B90102C0660F771F8C
S1130AE08A95E2F7CB01942F982B94BB95B380950C
S1130AF055C098EE980F983008F0BFC041B3877086
S1130B0021E030E0B90102C0660F771F8A95E2F751
S1130B10CB01942F982B91BB92B3809556C088300B
S1130B2090F44AB321E030E0B90102C0660F771FA8
S1130B308A95E2F7CB018095942F98239ABB9BB3B7
S1130B4089238BBB089598EF980F983098F447B396
S1130B50877021E030E0B90102C0660F771F8A95E3
S1130B60E2F7CB018095942F982397BB98B3892300
S1130B7088BB089590EF980F983090F444B3877031
S1130B8021E030E0B90102C0660F771F8A95E2F7D1
S1130B90CB018095942F982394BB95B3892355C09A
S1130BA098EE980F983008F068C041B3877021E040
S1130BB030E0B90102C0660F771F8A95E2F7CB01D6
S1130BC08095942F982391BB92B3892355C0883084
S1130BD088F44AB321E030E0B90102C0660F771F00
S1130BE08A95E2F7CB01962F909594239ABB9BB3F9
S1130BF0892BA7CF98EF980F983090F447B387705C
S1130C0021E030E0B90102C0660F771F8A95E2F750
S1130C10CB01962F9095942397BB98B3892BA8CF9B
S1130C2090EF980F983098F444B3877021E030E047
S1130C30B90102C0660F771F8A95E2F7CB01962FA0
S1130C409095942394BB95B3892B85BB089598EE16
S1130C50980F983090F441B3877021E030E0B901E7
S1130C6002C0660F771F8A95E2F7CB01962F909505
S1130C70942391BB92B3892B82BB08950F931F9346
S1130C80CF930FED10E0C0E0F80161918F018C2F3C
S1130C900E943505CF5FC032B9F7CF911F910F91F4
S1130CA00895662309F44DC0613009F093C090E0C3
S1130CB08032910508F08EC0FC01E75BFF4F0C9475
S1130CC07007D89A0895D99A0895DA9A0895DB9A04
S1130CD00895DC9A0895DD9A0895DE9A0895DF9ABE
S1130CE00895C09A0895C19A0895C29A0895C39A1E
S1130CF00895C49A0895C59A0895C69A0895C79AFE
S1130D000895A89A0895A99A0895AA9A0895AB9A5D
S1130D100895AC9A0895AD9A0895AE9A0895A79A45
S1130D200895909A0895919A0895929A0895939A9D
S1130D300895949A0895959A0895969A0895979A7D
S1130D40089590E08032910508F044C0FC01E75911
S1130D50FF4F0C947007D8980895D9980895DA989D
S1130D600895DB980895DC980895DD980895DE9839
S1130D700895DF980895C0980895C1980895C29879
S1130D800895C3980895C4980895C5980895C69879
S1130D900895C7980895A8980895A9980895AA98B9
S1130DA00895AB980895AC980895AD980895AE98B9
S1130DB00895AF98089590980895919808959298F9
S1130DC008959398089594980895959808959698F9
S1130DD0089597980895813041F028F0823039F0D1
S1130DE0833039F008956BBB089568BB089565BBE3
S1130DF0089562BB0895482F883020F499B3892F51
S1130E0090E014C088EF840F883010F426B30BC030
S1130E1080EF840F883010F423B305C088EE840F6C
S1130E20883058F420B330E04770C90102C095956A
S1130E3087954A95E2F78170089580E00895DB0173
S1130E408F939F930E947607BF91AF91A29F800DCD
S1130E50911DA39F900DB29F900D11240895A1E2BE
S1130E601A2EAA1BBB1BFD010DC0AA1FBB1FEE1F20
S1130E70FF1FA217B307E407F50720F0A21BB30B6B
S1130E80E40BF50B661F771F881F991F1A9469F7E7
S1130E9060957095809590959B01AC01BD01CF0143
S1130EA00895052E97FB1EF400940E94680757FDD1
S1130EB007D00E942F0707FC03D04EF40C94680758
S1130EC050954095309521953F4F4F4F5F4F089572
S1130ED090958095709561957F4F8F4F9F4F0895A2
S1130EE0EE0FFF1F0590F491E02D09940E948107F5
S1130EF0A59F900DB49F900DA49F800D911D11246A
S1130F000895A29FB001B39FC001A39F700D811DDE
S1130F101124911DB29F700D811D1124911D0895FE
S1070F20F894FFCF6F
S1130F2437383941343536423132334363303D4402
S1130F3448656C6C6F3A2D204D6F68616D65642053
S1130F44536179656400436F6E76657274206672CA
S1130F546F6D00312D4420322D48657820332D42A5
S1130F6400436F6E76657274202020746F00312DF7
S1130F744420332D4200312D4420322D486578001D
S1130F8442696E617279204E756D62657220736870
S1130F946F756C642062652030206F72203100000C
S1130FA40000000000000000000000000000000237
S1130FB4020202020202020202020202020202000B
S9030000FC
